:1000000013C022C021C04AC01FC01EC01DC01CC0DA
:100010001BC01AC019C018C017C016C015C01CC01C
:1000200013C012C011C010C011241FBECFEFD2E008
:10003000DEBFCDBF11E0A0E0B1E001C01D92A7304E
:10004000B107E1F73BD03CC0DBCF81EC8CBD509ACF
:10005000589A0895089508951F920F920FB60F921F
:1000600011248F93EF93FF938EB58E3079F08F30FC
:1000700029F4109201011092000108C08EB5E091A0
:100080000001F0910101EE5FFE4F8083FF91EF913F
:100090008F910F900FBE0F901F9018951F920F9287
:1000A0000FB60F9211248F938BB1109206011EBCD4
:1000B0008F910F900FBE0F901F901895C6DFFFCF46
:0400C000F894FFCFE2
:00000001FF
