:1000000013C01AC019C018C017C016C015C014C03C
:1000100013C013C011C010C00FC00EC00DC00CC063
:100020000BC00AC009C008C011241FBECFEFD2E028
:10003000DEBFCDBF14D02DC0E3CF1F920F920FB6FD
:100040000F9211248F939F938BB191E089278BB9E5
:100050009F918F910F900FBE0F901F901895F8945D
:100060008091810083608093810088E09DE390937C
:10007000890080938800809181008860809381004E
:1000800080916F00826080936F007894509A589AA4
:06009000FFCFF894FFCF42
:00000001FF
